{
  "contractName": "Adoption",
  "abi": [
    {
      "constant": true,
      "inputs": [
        {
          "internalType": "uint256",
          "name": "",
          "type": "uint256"
        }
      ],
      "name": "adopters",
      "outputs": [
        {
          "internalType": "address",
          "name": "",
          "type": "address"
        }
      ],
      "payable": false,
      "stateMutability": "view",
      "type": "function"
    },
    {
      "constant": true,
      "inputs": [],
      "name": "last_completed_migration",
      "outputs": [
        {
          "internalType": "uint256",
          "name": "",
          "type": "uint256"
        }
      ],
      "payable": false,
      "stateMutability": "view",
      "type": "function"
    },
    {
      "constant": false,
      "inputs": [
        {
          "internalType": "uint256",
          "name": "petId",
          "type": "uint256"
        }
      ],
      "name": "adopt",
      "outputs": [
        {
          "internalType": "uint256",
          "name": "",
          "type": "uint256"
        }
      ],
      "payable": false,
      "stateMutability": "nonpayable",
      "type": "function"
    },
    {
      "constant": true,
      "inputs": [],
      "name": "getAdopters",
      "outputs": [
        {
          "internalType": "address[16]",
          "name": "",
          "type": "address[16]"
        }
      ],
      "payable": false,
      "stateMutability": "view",
      "type": "function"
    }
  ],
  "bytecode": "0x608060405234801561001057600080fd5b506102e5806100206000396000f3fe608060405234801561001057600080fd5b506004361061004c5760003560e01c80633de4eb171461005157806343ae80d314610097578063445df0ac146101055780638588b2c514610123575b600080fd5b610059610165565b6040518082601060200280838360005b83811015610084578082015181840152602081019050610069565b5050505090500191505060405180910390f35b6100c3600480360360208110156100ad57600080fd5b81019080803590602001909291905050506101e6565b604051808273ffffffffffffffffffffffffffffffffffffffff1673ffffffffffffffffffffffffffffffffffffffff16815260200191505060405180910390f35b61010d610219565b6040518082815260200191505060405180910390f35b61014f6004803603602081101561013957600080fd5b810190808035906020019092919050505061021f565b6040518082815260200191505060405180910390f35b61016d61028d565b60006010806020026040519081016040528092919082601080156101dc576020028201915b8160009054906101000a900473ffffffffffffffffffffffffffffffffffffffff1673ffffffffffffffffffffffffffffffffffffffff1681526020019060010190808311610192575b5050505050905090565b600081601081106101f357fe5b016000915054906101000a900473ffffffffffffffffffffffffffffffffffffffff1681565b60105481565b60008082101580156102325750600f8211155b61023b57600080fd5b336000836010811061024957fe5b0160006101000a81548173ffffffffffffffffffffffffffffffffffffffff021916908373ffffffffffffffffffffffffffffffffffffffff160217905550919050565b60405180610200016040528060109060208202803883398082019150509050509056fea265627a7a723158205ab2fc768da8184dd2e755147c81bd0e77bc1e725350cd7d0e466c4e825fe2c564736f6c63430005100032",
  "source": "pragma solidity >=0.4.21 <0.7.0;\n\ncontract Adoption {\n  address[16] public adopters; \n  uint public last_completed_migration;\n\n  function adopt(uint petId) public returns(uint) {\n  \trequire ((petId >= 0) && (petId <=15 ));\n  \tadopters[petId] = msg.sender;\n  }\n\n  function getAdopters() view public returns ( address[16] memory ) {\n  \treturn adopters;\n  }\n  \n}\n",
  "sourcePath": "/Users/ace/work/game_blockchain/source/pet-shop/contracts/Adoption.sol",
  "compiler": {
    "name": "solc",
    "version": "0.5.16+commit.9c3226ce.Emscripten.clang"
  },
  "schemaVersion": "3.2.0",
  "updatedAt": "2020-06-10T10:35:05.731Z",
  "networkType": "ethereum",
  "devdoc": {
    "methods": {}
  },
  "userdoc": {
    "methods": {}
  }
}